{
  "contractName": "RealEstate",
  "abi": [
    {
      "inputs": [],
      "stateMutability": "nonpayable",
      "type": "constructor"
    },
    {
      "anonymous": false,
      "inputs": [
        {
          "indexed": true,
          "internalType": "address",
          "name": "owner",
          "type": "address"
        },
        {
          "indexed": true,
          "internalType": "address",
          "name": "approved",
          "type": "address"
        },
        {
          "indexed": true,
          "internalType": "uint256",
          "name": "tokenId",
          "type": "uint256"
        }
      ],
      "name": "Approval",
      "type": "event"
    },
    {
      "anonymous": false,
      "inputs": [
        {
          "indexed": true,
          "internalType": "address",
          "name": "owner",
          "type": "address"
        },
        {
          "indexed": true,
          "internalType": "address",
          "name": "operator",
          "type": "address"
        },
        {
          "indexed": false,
          "internalType": "bool",
          "name": "approved",
          "type": "bool"
        }
      ],
      "name": "ApprovalForAll",
      "type": "event"
    },
    {
      "anonymous": false,
      "inputs": [
        {
          "indexed": true,
          "internalType": "address",
          "name": "from",
          "type": "address"
        },
        {
          "indexed": true,
          "internalType": "address",
          "name": "to",
          "type": "address"
        },
        {
          "indexed": true,
          "internalType": "uint256",
          "name": "tokenId",
          "type": "uint256"
        }
      ],
      "name": "Transfer",
      "type": "event"
    },
    {
      "inputs": [
        {
          "internalType": "address",
          "name": "to",
          "type": "address"
        },
        {
          "internalType": "uint256",
          "name": "tokenId",
          "type": "uint256"
        }
      ],
      "name": "approve",
      "outputs": [],
      "stateMutability": "nonpayable",
      "type": "function"
    },
    {
      "inputs": [
        {
          "internalType": "address",
          "name": "owner",
          "type": "address"
        }
      ],
      "name": "balanceOf",
      "outputs": [
        {
          "internalType": "uint256",
          "name": "",
          "type": "uint256"
        }
      ],
      "stateMutability": "view",
      "type": "function"
    },
    {
      "inputs": [
        {
          "internalType": "uint256",
          "name": "tokenId",
          "type": "uint256"
        }
      ],
      "name": "getApproved",
      "outputs": [
        {
          "internalType": "address",
          "name": "",
          "type": "address"
        }
      ],
      "stateMutability": "view",
      "type": "function"
    },
    {
      "inputs": [
        {
          "internalType": "address",
          "name": "owner",
          "type": "address"
        },
        {
          "internalType": "address",
          "name": "operator",
          "type": "address"
        }
      ],
      "name": "isApprovedForAll",
      "outputs": [
        {
          "internalType": "bool",
          "name": "",
          "type": "bool"
        }
      ],
      "stateMutability": "view",
      "type": "function"
    },
    {
      "inputs": [
        {
          "internalType": "string",
          "name": "tokenURI",
          "type": "string"
        }
      ],
      "name": "mint",
      "outputs": [
        {
          "internalType": "uint256",
          "name": "",
          "type": "uint256"
        }
      ],
      "stateMutability": "nonpayable",
      "type": "function"
    },
    {
      "inputs": [],
      "name": "name",
      "outputs": [
        {
          "internalType": "string",
          "name": "",
          "type": "string"
        }
      ],
      "stateMutability": "view",
      "type": "function"
    },
    {
      "inputs": [
        {
          "internalType": "uint256",
          "name": "tokenId",
          "type": "uint256"
        }
      ],
      "name": "ownerOf",
      "outputs": [
        {
          "internalType": "address",
          "name": "",
          "type": "address"
        }
      ],
      "stateMutability": "view",
      "type": "function"
    },
    {
      "inputs": [
        {
          "internalType": "address",
          "name": "from",
          "type": "address"
        },
        {
          "internalType": "address",
          "name": "to",
          "type": "address"
        },
        {
          "internalType": "uint256",
          "name": "tokenId",
          "type": "uint256"
        }
      ],
      "name": "safeTransferFrom",
      "outputs": [],
      "stateMutability": "nonpayable",
      "type": "function"
    },
    {
      "inputs": [
        {
          "internalType": "address",
          "name": "from",
          "type": "address"
        },
        {
          "internalType": "address",
          "name": "to",
          "type": "address"
        },
        {
          "internalType": "uint256",
          "name": "tokenId",
          "type": "uint256"
        },
        {
          "internalType": "bytes",
          "name": "data",
          "type": "bytes"
        }
      ],
      "name": "safeTransferFrom",
      "outputs": [],
      "stateMutability": "nonpayable",
      "type": "function"
    },
    {
      "inputs": [
        {
          "internalType": "address",
          "name": "operator",
          "type": "address"
        },
        {
          "internalType": "bool",
          "name": "approved",
          "type": "bool"
        }
      ],
      "name": "setApprovalForAll",
      "outputs": [],
      "stateMutability": "nonpayable",
      "type": "function"
    },
    {
      "inputs": [
        {
          "internalType": "bytes4",
          "name": "interfaceId",
          "type": "bytes4"
        }
      ],
      "name": "supportsInterface",
      "outputs": [
        {
          "internalType": "bool",
          "name": "",
          "type": "bool"
        }
      ],
      "stateMutability": "view",
      "type": "function"
    },
    {
      "inputs": [],
      "name": "symbol",
      "outputs": [
        {
          "internalType": "string",
          "name": "",
          "type": "string"
        }
      ],
      "stateMutability": "view",
      "type": "function"
    },
    {
      "inputs": [
        {
          "internalType": "uint256",
          "name": "tokenId",
          "type": "uint256"
        }
      ],
      "name": "tokenURI",
      "outputs": [
        {
          "internalType": "string",
          "name": "",
          "type": "string"
        }
      ],
      "stateMutability": "view",
      "type": "function"
    },
    {
      "inputs": [],
      "name": "totalSupple",
      "outputs": [
        {
          "internalType": "uint256",
          "name": "",
          "type": "uint256"
        }
      ],
      "stateMutability": "view",
      "type": "function"
    },
    {
      "inputs": [
        {
          "internalType": "address",
          "name": "from",
          "type": "address"
        },
        {
          "internalType": "address",
          "name": "to",
          "type": "address"
        },
        {
          "internalType": "uint256",
          "name": "tokenId",
          "type": "uint256"
        }
      ],
      "name": "transferFrom",
      "outputs": [],
      "stateMutability": "nonpayable",
      "type": "function"
    }
  ],
  "bytecode": "60806040523480156200001157600080fd5b506040518060400160405280600b81526020016a5265616c2045737461746560a81b815250604051806040016040528060048152602001631491505360e21b815250816000908162000064919062000121565b50600162000073828262000121565b505050620001ed565b634e487b7160e01b600052604160045260246000fd5b600181811c90821680620000a757607f821691505b602082108103620000c857634e487b7160e01b600052602260045260246000fd5b50919050565b601f8211156200011c57600081815260208120601f850160051c81016020861015620000f75750805b601f850160051c820191505b81811015620001185782815560010162000103565b5050505b505050565b81516001600160401b038111156200013d576200013d6200007c565b62000155816200014e845462000092565b84620000ce565b602080601f8311600181146200018d5760008415620001745750858301515b600019600386901b1c1916600185901b17855562000118565b600085815260208120601f198616915b82811015620001be578886015182559484019460019091019084016200019d565b5085821015620001dd5787850151600019600388901b60f8161c191681555b5050505050600190811b01905550565b6115de80620001fd6000396000f3fe608060405234801561001057600080fd5b50600436106100f55760003560e01c806370a0823111610097578063b88d4fde11610066578063b88d4fde146101f4578063c87b56dd14610207578063d85d3d271461021a578063e985e9c51461022d57600080fd5b806370a08231146101b05780637e18fb19146101d157806395d89b41146101d9578063a22cb465146101e157600080fd5b8063095ea7b3116100d3578063095ea7b31461016257806323b872dd1461017757806342842e0e1461018a5780636352211e1461019d57600080fd5b806301ffc9a7146100fa57806306fdde0314610122578063081812fc14610137575b600080fd5b61010d610108366004610f98565b610240565b60405190151581526020015b60405180910390f35b61012a610292565b6040516101199190611005565b61014a610145366004611018565b610324565b6040516001600160a01b039091168152602001610119565b61017561017036600461104d565b61034b565b005b610175610185366004611077565b610465565b610175610198366004611077565b610496565b61014a6101ab366004611018565b6104b1565b6101c36101be3660046110b3565b610511565b604051908152602001610119565b6101c3610597565b61012a6105a7565b6101756101ef3660046110ce565b6105b6565b610175610202366004611196565b6105c5565b61012a610215366004611018565b6105fd565b6101c3610228366004611212565b61070d565b61010d61023b36600461125b565b61073e565b60006001600160e01b031982166380ac58cd60e01b148061027157506001600160e01b03198216635b5e139f60e01b145b8061028c57506301ffc9a760e01b6001600160e01b03198316145b92915050565b6060600080546102a19061128e565b80601f01602080910402602001604051908101604052809291908181526020018280546102cd9061128e565b801561031a5780601f106102ef5761010080835404028352916020019161031a565b820191906000526020600020905b8154815290600101906020018083116102fd57829003601f168201915b5050505050905090565b600061032f8261076c565b506000908152600460205260409020546001600160a01b031690565b6000610356826104b1565b9050806001600160a01b0316836001600160a01b0316036103c85760405162461bcd60e51b815260206004820152602160248201527f4552433732313a20617070726f76616c20746f2063757272656e74206f776e656044820152603960f91b60648201526084015b60405180910390fd5b336001600160a01b03821614806103e457506103e4813361073e565b6104565760405162461bcd60e51b815260206004820152603e60248201527f4552433732313a20617070726f76652063616c6c6572206973206e6f7420746f60448201527f6b656e206f776e6572206e6f7220617070726f76656420666f7220616c6c000060648201526084016103bf565b61046083836107ce565b505050565b61046f338261083c565b61048b5760405162461bcd60e51b81526004016103bf906112c8565b61046083838361089a565b610460838383604051806020016040528060008152506105c5565b6000818152600260205260408120546001600160a01b03168061028c5760405162461bcd60e51b8152602060048201526018602482015277115490cdcc8c4e881a5b9d985b1a59081d1bdad95b88125160421b60448201526064016103bf565b60006001600160a01b03821661057b5760405162461bcd60e51b815260206004820152602960248201527f4552433732313a2061646472657373207a65726f206973206e6f7420612076616044820152683634b21037bbb732b960b91b60648201526084016103bf565b506001600160a01b031660009081526003602052604090205490565b60006105a260075490565b905090565b6060600180546102a19061128e565b6105c1338383610a36565b5050565b6105cf338361083c565b6105eb5760405162461bcd60e51b81526004016103bf906112c8565b6105f784848484610b04565b50505050565b60606106088261076c565b600082815260066020526040812080546106219061128e565b80601f016020809104026020016040519081016040528092919081815260200182805461064d9061128e565b801561069a5780601f1061066f5761010080835404028352916020019161069a565b820191906000526020600020905b81548152906001019060200180831161067d57829003601f168201915b5050505050905060006106b860408051602081019091526000815290565b905080516000036106ca575092915050565b8151156106fc5780826040516020016106e4929190611316565b60405160208183030381529060405292505050919050565b61070584610b37565b949350505050565b600061071d600780546001019055565b600061072860075490565b90506107343382610bab565b61028c8184610ced565b6001600160a01b03918216600090815260056020908152604080832093909416825291909152205460ff1690565b6000818152600260205260409020546001600160a01b03166107cb5760405162461bcd60e51b8152602060048201526018602482015277115490cdcc8c4e881a5b9d985b1a59081d1bdad95b88125160421b60448201526064016103bf565b50565b600081815260046020526040902080546001600160a01b0319166001600160a01b0384169081179091558190610803826104b1565b6001600160a01b03167f8c5be1e5ebec7d5bd14f71427d1e84f3dd0314c0f7b2291e5b200ac8c7c3b92560405160405180910390a45050565b600080610848836104b1565b9050806001600160a01b0316846001600160a01b0316148061086f575061086f818561073e565b806107055750836001600160a01b031661088884610324565b6001600160a01b031614949350505050565b826001600160a01b03166108ad826104b1565b6001600160a01b0316146109115760405162461bcd60e51b815260206004820152602560248201527f4552433732313a207472616e736665722066726f6d20696e636f72726563742060448201526437bbb732b960d91b60648201526084016103bf565b6001600160a01b0382166109735760405162461bcd60e51b8152602060048201526024808201527f4552433732313a207472616e7366657220746f20746865207a65726f206164646044820152637265737360e01b60648201526084016103bf565b61097e6000826107ce565b6001600160a01b03831660009081526003602052604081208054600192906109a790849061135b565b90915550506001600160a01b03821660009081526003602052604081208054600192906109d590849061136e565b909155505060008181526002602052604080822080546001600160a01b0319166001600160a01b0386811691821790925591518493918716917fddf252ad1be2c89b69c2b068fc378daa952ba7f163c4a11628f55a4df523b3ef91a4505050565b816001600160a01b0316836001600160a01b031603610a975760405162461bcd60e51b815260206004820152601960248201527f4552433732313a20617070726f766520746f2063616c6c65720000000000000060448201526064016103bf565b6001600160a01b03838116600081815260056020908152604080832094871680845294825291829020805460ff191686151590811790915591519182527f17307eab39ab6107e8899845ad3d59bd9653f200f220920489ca2b5937696c31910160405180910390a3505050565b610b0f84848461089a565b610b1b84848484610d80565b6105f75760405162461bcd60e51b81526004016103bf90611381565b6060610b428261076c565b6000610b5960408051602081019091526000815290565b90506000815111610b795760405180602001604052806000815250610ba4565b80610b8384610e81565b604051602001610b94929190611316565b6040516020818303038152906040525b9392505050565b6001600160a01b038216610c015760405162461bcd60e51b815260206004820181905260248201527f4552433732313a206d696e7420746f20746865207a65726f206164647265737360448201526064016103bf565b6000818152600260205260409020546001600160a01b031615610c665760405162461bcd60e51b815260206004820152601c60248201527f4552433732313a20746f6b656e20616c7265616479206d696e7465640000000060448201526064016103bf565b6001600160a01b0382166000908152600360205260408120805460019290610c8f90849061136e565b909155505060008181526002602052604080822080546001600160a01b0319166001600160a01b03861690811790915590518392907fddf252ad1be2c89b69c2b068fc378daa952ba7f163c4a11628f55a4df523b3ef908290a45050565b6000828152600260205260409020546001600160a01b0316610d685760405162461bcd60e51b815260206004820152602e60248201527f45524337323155524953746f726167653a2055524920736574206f66206e6f6e60448201526d32bc34b9ba32b73a103a37b5b2b760911b60648201526084016103bf565b60008281526006602052604090206104608282611421565b60006001600160a01b0384163b15610e7657604051630a85bd0160e11b81526001600160a01b0385169063150b7a0290610dc49033908990889088906004016114e1565b6020604051808303816000875af1925050508015610dff575060408051601f3d908101601f19168201909252610dfc9181019061151e565b60015b610e5c573d808015610e2d576040519150601f19603f3d011682016040523d82523d6000602084013e610e32565b606091505b508051600003610e545760405162461bcd60e51b81526004016103bf90611381565b805181602001fd5b6001600160e01b031916630a85bd0160e11b149050610705565b506001949350505050565b606081600003610ea85750506040805180820190915260018152600360fc1b602082015290565b8160005b8115610ed25780610ebc8161153b565b9150610ecb9050600a8361156a565b9150610eac565b60008167ffffffffffffffff811115610eed57610eed61110a565b6040519080825280601f01601f191660200182016040528015610f17576020820181803683370190505b5090505b841561070557610f2c60018361135b565b9150610f39600a8661157e565b610f4490603061136e565b60f81b818381518110610f5957610f59611592565b60200101906001600160f81b031916908160001a905350610f7b600a8661156a565b9450610f1b565b6001600160e01b0319811681146107cb57600080fd5b600060208284031215610faa57600080fd5b8135610ba481610f82565b60005b83811015610fd0578181015183820152602001610fb8565b50506000910152565b60008151808452610ff1816020860160208601610fb5565b601f01601f19169290920160200192915050565b602081526000610ba46020830184610fd9565b60006020828403121561102a57600080fd5b5035919050565b80356001600160a01b038116811461104857600080fd5b919050565b6000806040838503121561106057600080fd5b61106983611031565b946020939093013593505050565b60008060006060848603121561108c57600080fd5b61109584611031565b92506110a360208501611031565b9150604084013590509250925092565b6000602082840312156110c557600080fd5b610ba482611031565b600080604083850312156110e157600080fd5b6110ea83611031565b9150602083013580151581146110ff57600080fd5b809150509250929050565b634e487b7160e01b600052604160045260246000fd5b600067ffffffffffffffff8084111561113b5761113b61110a565b604051601f8501601f19908116603f011681019082821181831017156111635761116361110a565b8160405280935085815286868601111561117c57600080fd5b858560208301376000602087830101525050509392505050565b600080600080608085870312156111ac57600080fd5b6111b585611031565b93506111c360208601611031565b925060408501359150606085013567ffffffffffffffff8111156111e657600080fd5b8501601f810187136111f757600080fd5b61120687823560208401611120565b91505092959194509250565b60006020828403121561122457600080fd5b813567ffffffffffffffff81111561123b57600080fd5b8201601f8101841361124c57600080fd5b61070584823560208401611120565b6000806040838503121561126e57600080fd5b61127783611031565b915061128560208401611031565b90509250929050565b600181811c908216806112a257607f821691505b6020821081036112c257634e487b7160e01b600052602260045260246000fd5b50919050565b6020808252602e908201527f4552433732313a2063616c6c6572206973206e6f7420746f6b656e206f776e6560408201526d1c881b9bdc88185c1c1c9bdd995960921b606082015260800190565b60008351611328818460208801610fb5565b83519083019061133c818360208801610fb5565b01949350505050565b634e487b7160e01b600052601160045260246000fd5b8181038181111561028c5761028c611345565b8082018082111561028c5761028c611345565b60208082526032908201527f4552433732313a207472616e7366657220746f206e6f6e20455243373231526560408201527131b2b4bb32b91034b6b83632b6b2b73a32b960711b606082015260800190565b601f82111561046057600081815260208120601f850160051c810160208610156113fa5750805b601f850160051c820191505b8181101561141957828155600101611406565b505050505050565b815167ffffffffffffffff81111561143b5761143b61110a565b61144f81611449845461128e565b846113d3565b602080601f831160018114611484576000841561146c5750858301515b600019600386901b1c1916600185901b178555611419565b600085815260208120601f198616915b828110156114b357888601518255948401946001909101908401611494565b50858210156114d15787850151600019600388901b60f8161c191681555b5050505050600190811b01905550565b6001600160a01b038581168252841660208201526040810183905260806060820181905260009061151490830184610fd9565b9695505050505050565b60006020828403121561153057600080fd5b8151610ba481610f82565b60006001820161154d5761154d611345565b5060010190565b634e487b7160e01b600052601260045260246000fd5b60008261157957611579611554565b500490565b60008261158d5761158d611554565b500690565b634e487b7160e01b600052603260045260246000fdfea26469706673582212207a22ca8866cf09115ba8f60494840d9c41b766b38bad99760d8ba70b601add1264736f6c63430008110033",
  "sourcePath": "/Users/huntley/vscode-workspace/blockchain-technology/learn-nft-hardhat/millow/contracts/RealEstate.sol",
  "compiler": {
    "name": "solc",
    "version": "0.8.17+commit.8df45f5f"
  },
  "functionHashes": {
    "approve(address,uint256)": "095ea7b3",
    "balanceOf(address)": "70a08231",
    "getApproved(uint256)": "081812fc",
    "isApprovedForAll(address,address)": "e985e9c5",
    "mint(string)": "d85d3d27",
    "name()": "06fdde03",
    "ownerOf(uint256)": "6352211e",
    "safeTransferFrom(address,address,uint256)": "42842e0e",
    "safeTransferFrom(address,address,uint256,bytes)": "b88d4fde",
    "setApprovalForAll(address,bool)": "a22cb465",
    "supportsInterface(bytes4)": "01ffc9a7",
    "symbol()": "95d89b41",
    "tokenURI(uint256)": "c87b56dd",
    "totalSupple()": "7e18fb19",
    "transferFrom(address,address,uint256)": "23b872dd"
  },
  "gasEstimates": {
    "creation": {
      "codeDepositCost": "1119600",
      "executionCost": "infinite",
      "totalCost": "infinite"
    },
    "external": {
      "approve(address,uint256)": "infinite",
      "balanceOf(address)": "2612",
      "getApproved(uint256)": "4792",
      "isApprovedForAll(address,address)": "infinite",
      "mint(string)": "infinite",
      "name()": "infinite",
      "ownerOf(uint256)": "2627",
      "safeTransferFrom(address,address,uint256)": "infinite",
      "safeTransferFrom(address,address,uint256,bytes)": "infinite",
      "setApprovalForAll(address,bool)": "26772",
      "supportsInterface(bytes4)": "534",
      "symbol()": "infinite",
      "tokenURI(uint256)": "infinite",
      "totalSupple()": "2375",
      "transferFrom(address,address,uint256)": "infinite"
    }
  }
}